:020000040800F2
:10000000100400209D010008690400086104000834
:100010006504000811020008B9060008000000008D
:10002000000000000000000000000000290500089A
:100030001502000800000000E50400085906000849
:10004000B7010008B7010008B7010008B7010008B0
:10005000B7010008B701000819020008B70100083D
:10006000B7010008B7010008B7010008B701000890
:10007000B7010008B7010008B7010008B701000880
:10008000B7010008B7010008B7010008B701000870
:10009000B7010008B7010008B7010008B701000860
:1000A000B7010008B7010008B7010008B701000850
:1000B000B7010008B7010008B7010008B701000840
:1000C000B7010008B7010008B7010008B701000830
:1000D000B7010008B7010008B7010008B701000820
:1000E000B7010008B7010008B7010008B701000810
:1000F000B7010008B7010008B7010008B701000800
:10010000B7010008B7010008B7010008B7010008EF
:10011000B7010008B7010008B7010008B7010008DF
:10012000B7010008B7010008B7010008B7010008CF
:10013000B7010008B7010008B7010008B7010008BF
:10014000B7010008B7010008B7010008B7010008AF
:10015000B7010008B7010008B7010008B70100089F
:10016000B7010008B7010008B7010008B70100088F
:10017000B7010008B7010008B7010008B70100087F
:10018000B7010008B7010008DFF80CD000F02EF826
:1001900000480047950800081004002006488047E2
:1001A00006480047FEE7FEE7FEE7FEE7FEE7FEE75C
:1001B000FEE7FEE7FEE7FEE75D06000889010008AE
:1001C00030B50B46014600202022012409E021FA27
:1001D00002F59D4205D303FA02F5491B04FA02F524
:1001E0002844151EA2F10102F1DC30BD064C074D7A
:1001F00006E0E06840F0010394E8070098471034F7
:10020000AC42F6D3FFF7C4FFD8080008F80800088E
:1002100000BFFEE77047000010B5012000F01AF89B
:1002200060B14FF48051064800F016F905480068A7
:10023000401C04490860012000F006F810BD0000D1
:10024000000C0240000000200149086070470000D7
:10025000143C0140014600200022074B1B6803EAC2
:100260000102054B14331B680B4013B10AB1012086
:1002700000E0002070470000003C014000212349BD
:100280008279002A3AD00A46126803689A430B46DC
:100290001A600A1D126803689A430B1D1A600279DE
:1002A00011440A6803681A430A60184A083212683F
:1002B00003689A43154B08331A601A1D12680368C5
:1002C0009A43124B0C331A604279102A0ED11A1F2E
:1002D000126803681A430D4B08331A601A1D12681E
:1002E00003681A43094B0C331A600DE00749427941
:1002F00011440A6803681A430A6005E00279114450
:100300000A6803689A430A6070470000003C014095
:100310000EB50121880300F0F7F80021084600F02F
:1003200005F90120009000208DF8040008208DF8C8
:10033000050001208DF806006846FFF79FFF0620A4
:100340008DF8080001208DF809008DF80A008DF85D
:100350000B0002A800F08AF80EBDF0B50A46002195
:100360000023002400BF3DE0012505FA01F31568D4
:1003700005EA03049C4234D105684F000326BE40C1
:10038000B543056015794E00B540066835430560F4
:100390001579012D02D01579022D16D185684F00EF
:1003A0000326BE40B543856055794E00B54086684A
:1003B00035438560456801268E40B54345604568F4
:1003C00096798E40B6B235434560C5684F00032626
:1003D000BE40B543C560D5794E00B540C6683543CB
:1003E000C560491C1029BFD3F0BD00001CB5012118
:1003F000084600F079F80120009000208DF80400F4
:100400008DF8070069460248FFF7A7FF1CBD0000F2
:10041000000002401CB50121082000F065F84FF4EF
:100420007040009001208DF8040000208DF8060037
:1004300003208DF8050000208DF807006946044868
:10044000FFF78BFF4FF47041014800F003F81CBD2B
:10045000000C02404183704742694A404261704744
:1004600000BFFEE700BFFEE77047000070B5002147
:1004700000230F22C4781CB3174C246804F4E064F2
:10048000C4F5E064C4F30721C1F10404E3B20A41F6
:1004900044789C40E1B28478144021430C07210E3B
:1004A0000E4C05786155047804F01F050124AC401A
:1004B00005786D11AD0005F1E025C5F8004109E0B2
:1004C000047804F01F050124AC40054D0678761130
:1004D00045F8264070BD00000CED00E000E400E0AF
:1004E00080E100E07047000029B1064A126802432B
:1004F000044B1A6004E0034A12688243014B1A60FD
:10050000704700003038024029B1064A12680243A1
:10051000044B1A6004E0034A12688243014B1A60DC
:1005200070470000443802407047000030B5002298
:100530008B071C0F0F2303FA04F20B4B8C1053F89C
:1005400024309343084C8D1044F8253023468C10FA
:1005500053F824308C07240F00FA04F42343024C90
:100560008D1044F8253030BD083801400CB500200E
:10057000019000903448006840F4803032490860AF
:1005800000BF3148006800F4003000900198401C22
:100590000190009818B90198B0F5A06FF1D12A48E0
:1005A000006800F4003010B10120009001E000204C
:1005B00000900098012846D123484030006840F060
:1005C00080502149403108602048006840F4804054
:1005D0001E4908601C48083000681B490831086043
:1005E0000846006840F4004008600846006840F48F
:1005F000A05008601648091F0860081F006840F0F6
:100600008070091F086000BF0F48006800F000708C
:100610000028F9D040F205600E4908600A48083009
:10062000006820F0030008490831086008460068A7
:1006300040F00200086000BF03480830006800F086
:100640000C000828F8D10CBD0038024000700040B2
:1006500008544007003C02407047000010B51248A3
:10066000006840F001001049086000200E49083180
:1006700008600D4800680D4908400B4908600C48A7
:10068000091D0860081F006820F48020091F086009
:10069000002005490C310860FFF768FF4FF000604B
:1006A0000449086010BD000000380240FFFFF6FE5C
:1006B0001030002408ED00E000BFFEE70FB4054B4A
:1006C00010B503A9044A029800F018F810BC5DF8B0
:1006D00014FB0000510800080400002002E008C8D4
:1006E000121F08C1002AFAD170477047002001E0AC
:1006F00001C1121F002AFBD1704700002DE9FF4FF6
:1007000089B09B460446002506E025280BD05A46B2
:100710000B999047641C6D1C20780028F5D10DB012
:100720002846BDE8F08F0027B8460122474900E07F
:10073000074314F8013F203B02FA03F00842F7D1C7
:1007400020782E2819D114F8010F47F004072A2821
:100750000ED06FF02F022078A0F1300109290CD8BB
:1007600008EB880102EB410100EB0108641CF2E791
:100770000A98641C50F8048B0A9020780028CED088
:10078000642808D0692806D075281ED05A460B99CF
:1007900090476D1C58E00A994FF00A0901C90A9167
:1007A000002802DA40422D2102E0390504D52B2130
:1007B0008DF82010012103E0F90704D02021F7E78C
:1007C0008A4608AE0DE00021FAE70A994FF00A09BF
:1007D00001C90A91F7E74946FFF7F2FC303106F804
:1007E000011D0028F7D1ADEB060000F120097807C4
:1007F00001D44FF00108C84502DDA8EB090000E074
:1008000000208046002706E008A85A46C05D0B99E4
:1008100090476D1C7F1C5745F6DB04E030205A469C
:100820000B9990476D1CB8F10001A8F10108F5DCA7
:1008300005E016F8010B5A460B9990476D1CB9F16B
:100840000001A9F10109F4DC641C65E70928010035
:1008500010B5024610460D4B1B6803F080739BB128
:100860000B4B1B6803F0010373B1094B803B1B6802
:1008700003F0010343B100BF4FF060431B68002B3E
:10088000FAD04FF06044207000BF10BDFCED00E0D6
:10089000800E00E0FFF7BEFDFFF7A8FDFFF738FD73
:1008A00004E00348016803A0FFF708FFF9E7000030
:1008B00000000020456C206E756D65726F206465C8
:1008C0002070756C736163696F6E65732065733A30
:1008D000202564200D0A0000F80800080000002010
:1008E0000C000000DC060008040900080C000020D1
:1008F00004040000EC0600080000000000000000F6
:0409000000000000F3
:040000050800018965
:00000001FF
