:020000040800F2
:10000000200400209D010008F9020008DD0200081C
:10001000E1020008110200086D0400080000000061
:100020000000000000000000000000001D030008A8
:100030001502000800000000FB0200080D04000883
:10004000B7010008B7010008B7010008B7010008B0
:10005000B7010008B7010008B7010008B7010008A0
:10006000B7010008B7010008B7010008B701000890
:10007000B7010008B7010008B7010008B701000880
:10008000B7010008B7010008B7010008B701000870
:10009000B7010008B7010008B7010008B701000860
:1000A000B7010008B7010008B7010008B701000850
:1000B000B7010008B7010008B7010008B701000840
:1000C000B7010008B7010008B7010008B701000830
:1000D000B7010008B7010008B7010008B701000820
:1000E000B7010008B7010008B7010008B701000810
:1000F000B7010008B7010008B7010008B701000800
:10010000B7010008B7010008B7010008B7010008EF
:10011000B7010008B7010008B7010008B7010008DF
:10012000B7010008B7010008B7010008B7010008CF
:10013000B7010008B7010008B7010008B7010008BF
:10014000B7010008B7010008B7010008B7010008AF
:10015000B7010008B7010008B7010008B70100089F
:10016000B7010008B7010008B7010008B70100088F
:10017000B7010008B7010008B7010008B70100087F
:10018000B7010008B7010008DFF80CD000F02EF826
:100190000048004749060008200400200648804720
:1001A00006480047FEE7FEE7FEE7FEE7FEE7FEE75C
:1001B000FEE7FEE7FEE7FEE71104000889010008FC
:1001C00030B50B46014600202022012409E021FA27
:1001D00002F59D4205D303FA02F5491B04FA02F524
:1001E0002844151EA2F10102F1DC30BD064C074D7A
:1001F00006E0E06840F0010394E8070098471034F7
:10020000AC42F6D3FFF7C4FFC0070008E0070008C0
:1002100000BFFEE7704700001CB50121084600F052
:100220006DF85F20009001208DF804008DF8060025
:1002300000208DF8050001208DF80700694602486E
:1002400000F004F81CBD0000000C0240F0B50A46A6
:1002500000210023002400BF3DE0012505FA01F341
:10026000156805EA03049C4234D105684F00032653
:10027000BE40B543056015794E00B540066835436C
:1002800005601579012D02D01579022D16D18568EA
:100290004F000326BE40B543856055794E00B540FA
:1002A000866835438560456801268E40B5434560C4
:1002B000456896798E40B6B235434560C5684F00B3
:1002C0000326BE40B543C560D5794E00B540C6682B
:1002D0003543C560491C1029BFD3F0BD00BFFEE700
:1002E00000BFFEE770B504460248055D284600F0F1
:1002F000FBF970BD100000207047704729B1064A15
:1003000012680243044B1A6004E0034A12688243F5
:10031000014B1A60704700003038024070470000FF
:100320000CB50020019000903448006840F4803003
:100330003249086000BF3148006800F40030009086
:100340000198401C0190009818B90198B0F5A06F71
:10035000F1D12A48006800F4003010B1012000906B
:1003600001E0002000900098012846D12348403049
:10037000006840F080502149403108602048006802
:1003800040F480401E4908601C48083000681B4942
:10039000083108600846006840F4004008600846DC
:1003A000006840F4A05008601648091F0860081F44
:1003B000006840F08070091F086000BF0F480068A7
:1003C00000F000700028F9D040F205600E49086086
:1003D0000A480830006820F0030008490831086026
:1003E0000846006840F00200086000BF034808307B
:1003F000006800F00C000828F8D10CBD003802405D
:100400000070004008544007003C02407047000064
:1004100010B51248006840F0010010490860002043
:100420000E49083108600D4800680D4908400B4925
:1004300008600C48091D0860081F006820F480202F
:10044000091F0860002005490C310860FFF768FFAC
:100450004FF000600449086010BD00000038024001
:10046000FFFFF6FE1030002408ED00E000BFFEE7BD
:100470000FB4054B10B503A9044A029800F018F810
:1004800010BC5DF814FB0000050600080800002001
:1004900002E008C8121F08C1002AFAD1704770474D
:1004A000002001E001C1121F002AFBD170470000AB
:1004B0002DE9FF4F89B09B460446002506E025281C
:1004C0000BD05A460B999047641C6D1C207800286D
:1004D000F5D10DB02846BDE8F08F0027B8460122BF
:1004E000474900E0074314F8013F203B02FA03F0BC
:1004F0000842F7D120782E2819D114F8010F47F0BF
:1005000004072A280ED06FF02F022078A0F13001C6
:1005100009290CD808EB880102EB410100EB010826
:10052000641CF2E70A98641C50F8048B0A90207847
:100530000028CED0642808D0692806D075281ED09F
:100540005A460B9990476D1C58E00A994FF00A09DA
:1005500001C90A91002802DA40422D2102E0390542
:1005600004D52B218DF82010012103E0F90704D0D8
:100570002021F7E78A4608AE0DE00021FAE70A9944
:100580004FF00A0901C90A91F7E74946FFF718FE3B
:10059000303106F8011D0028F7D1ADEB060000F15F
:1005A0002009780701D44FF00108C84502DDA8EB07
:1005B000090000E000208046002706E008A85A460F
:1005C000C05D0B9990476D1C7F1C5745F6DB04E01E
:1005D00030205A460B9990476D1CB8F10001A8F1E4
:1005E0000108F5DC05E016F8010B5A460B99904717
:1005F0006D1CB9F10001A9F10109F4DC641C65E787
:100600000928010010B5024610460D4B1B6803F087
:1006100080739BB10B4B1B6803F0010373B1094B53
:10062000803B1B6803F0010343B100BF4FF0604300
:100630001B68002BFAD04FF06044207000BF10BD43
:10064000FCED00E0800E00E0FFF7E6FD43E0002057
:100650002149086019E020490878FFF743FE1FA0F0
:10066000FFF706FF00201E49086004E01C480068F0
:10067000401C1B4908601A4800681A498842F5D393
:1006800015480068401C1449086013480068092890
:10069000E1D309201049086019E00F490878FFF7F5
:1006A00021FE0EA0FFF7E4FE00200D49086004E0E3
:1006B0000B480068401C0A4908600948006809495D
:1006C0008842F5D304480068401E03490860024888
:1006D00000680028E1D1BAE7000000200A0000000D
:1006E000040000208096980010B50446192C2AD0EA
:1006F0000CDC062C3FD004DC002C34D0022C3ED184
:1007000029E0122C23D0182C39D130E0402C0AD00B
:1007100004DC242C0FD0302C31D110E0782C1ED0EA
:10072000792C2CD103E019A0FFF7A2FE2BE018A032
:10073000FFF79EFE27E017A0FFF79AFE23E016A022
:10074000FFF796FE1FE015A0FFF792FE1BE014A036
:10075000FFF78EFE17E013A0FFF78AFE13E012A04A
:10076000FFF786FE0FE011A0FFF782FE0BE010A05E
:10077000FFF77EFE07E00FA0FFF77AFE03E00EA072
:10078000FFF776FE00BF00BF10BD00003000000084
:10079000310000003200000033000000340000008F
:1007A000350000003600000037000000380000006F
:1007B00039000000450000004572726F72000000B1
:1007C000E0070008000000201C0000009004000862
:1007D000FC0700081C00002004040000A00400081E
:1007E0000000000000000000000000000000000009
:0C07F0004079243019120278001806002D
:040000050800018965
:00000001FF
