:020000040800F2
:10000000200400209D0100084D0400083104000870
:1000100035040008E50100089D0600080000000006
:100020000000000000000000000000000D050008B6
:10003000E901000800000000C90400083D060008AE
:10004000B7010008B7010008B7010008B7010008B0
:10005000B7010008B70100081D020008B701000839
:10006000B7010008B7010008B7010008B701000890
:10007000B7010008B7010008B7010008B701000880
:10008000B7010008B7010008B7010008B701000870
:10009000B7010008B7010008B7010008B701000860
:1000A000B7010008B7010008B7010008B701000850
:1000B000B7010008B7010008B7010008B701000840
:1000C000B7010008B7010008B7010008B701000830
:1000D000B7010008B7010008B7010008B701000820
:1000E000B7010008B7010008B7010008B701000810
:1000F000B7010008B7010008B7010008B701000800
:10010000B7010008B7010008B7010008B7010008EF
:10011000B7010008B7010008B7010008B7010008DF
:10012000B7010008B7010008B7010008B7010008CF
:10013000B7010008B7010008B7010008B7010008BF
:10014000B7010008B7010008B7010008B7010008AF
:10015000B7010008B7010008B7010008B70100089F
:10016000B7010008B7010008B7010008B70100088F
:10017000B7010008B7010008B7010008B70100087F
:10018000B7010008B7010008DFF80CD000F018F83C
:1001900000480047C10600082004002006488047A8
:1001A00006480047FEE7FEE7FEE7FEE7FEE7FEE75C
:1001B000FEE7FEE7FEE7FEE74106000889010008CA
:1001C000064C074D06E0E06840F0010394E80700A4
:1001D00098471034AC42F6D3FFF7DAFFB4080008B2
:1001E000D408000800BFFEE7704700001CB50121DD
:1001F000022000F06BF97F20009001208DF80400B0
:100200008DF806008DF805008DF807006946024854
:1002100000F09DF81CBD00000004024010B5012054
:1002200000F012F838B14FF48051034800F0FCF8A8
:10023000012000F003F810BD000C024001490860E5
:1002400070470000143C0140014600200022074B8B
:100250001B6803EA0102054B14331B680B4013B102
:100260000AB1012000E0002070470000003C01407E
:10027000002123498279002A3AD00A46126803688D
:100280009A430B461A600A1D126803689A430B1DB5
:100290001A60027911440A6803681A430A60184A0E
:1002A0000832126803689A43154B08331A601A1D06
:1002B000126803689A43124B0C331A604279102A71
:1002C0000ED11A1F126803681A430D4B08331A60C7
:1002D0001A1D126803681A43094B0C331A600DE0AB
:1002E0000749427911440A6803681A430A6005E025
:1002F000027911440A6803689A430A607047000053
:10030000003C01400EB50121880300F0EFF8002108
:10031000084600F0FDF80120009000208DF8040050
:1003200008208DF8050001208DF806006846FFF7CB
:100330009FFF06208DF8080001208DF809008DF838
:100340000A008DF80B0002A800F082F80EBDF0B58F
:100350000A4600210023002400BF3DE0012505FAE4
:1003600001F3156805EA03049C4234D105684F0087
:100370000326BE40B543056015794E00B5400668BA
:10038000354305601579012D02D01579022D16D15E
:1003900085684F000326BE40B543856055794E0001
:1003A000B540866835438560456801268E40B54373
:1003B0004560456896798E40B6B235434560C5685C
:1003C0004F000326BE40B543C560D5794E00B54009
:1003D000C6683543C560491C1029BFD3F0BD000075
:1003E0001CB50121082000F071F84FF47040009016
:1003F00001208DF8040000208DF8060003208DF800
:10040000050000208DF8070069460448FFF79FFFAC
:100410004FF47041014800F003F81CBD000C02408D
:10042000418370470183704742694A404261704787
:1004300000BFFEE700BFFEE770B504460248055D59
:10044000284600F0ADF970BD100000207047000094
:1004500070B5002100230F22C4781CB3174C246808
:1004600004F4E064C4F5E064C4F30721C1F10404BA
:10047000E3B20A4144789C40E1B2847814402143BD
:100480000C07210E0E4C05786155047804F01F0509
:100490000124AC4005786D11AD0005F1E025C5F8EB
:1004A000004109E0047804F01F050124AC40054D2B
:1004B0000678761145F8264070BD00000CED00E08E
:1004C00000E400E080E100E07047000029B1064A46
:1004D00012680243044B1A6004E0034A1268824324
:1004E000014B1A60704700003038024029B1064ABB
:1004F00012680243044B1A6004E0034A1268824304
:10050000014B1A60704700004438024070470000F9
:1005100030B500228B071C0F0F2303FA04F20B4B9C
:100520008C1053F824309343084C8D1044F8253038
:1005300023468C1053F824308C07240F00FA04F45F
:100540002343024C8D1044F8253030BD083801405B
:100550000CB50020019000903448006840F48030D1
:100560003249086000BF3148006800F40030009054
:100570000198401C0190009818B90198B0F5A06F3F
:10058000F1D12A48006800F4003010B10120009039
:1005900001E0002000900098012846D12348403017
:1005A000006840F0805021494031086020480068D0
:1005B00040F480401E4908601C48083000681B4910
:1005C000083108600846006840F4004008600846AA
:1005D000006840F4A05008601648091F0860081F12
:1005E000006840F08070091F086000BF0F48006875
:1005F00000F000700028F9D040F205600E49086054
:100600000A480830006820F00300084908310860F3
:100610000846006840F00200086000BF0348083048
:10062000006800F00C000828F8D10CBD003802402A
:100630000070004008544007003C02407047000032
:1006400010B51248006840F0010010490860002011
:100650000E49083108600D4800680D4908400B49F3
:1006600008600C48091D0860081F006820F48020FD
:10067000091F0860002005490C310860FFF768FF7A
:100680004FF000600449086010BD000000380240CF
:10069000FFFFF6FE1030002408ED00E000BFFEE78B
:1006A00002E008C8121F08C1002AFAD1704770473B
:1006B000002001E001C1121F002AFBD17047000099
:1006C000FFF78EFEFFF71EFEFFF790FD60E00020B3
:1006D000304A1060506022E02E490878FFF7ACFEE7
:1006E00000212D4A1160516008E02B48D0E900300C
:1006F0005A1C40F100002849C1E900202648D0E9F1
:100700000010264BC91A70F10000EED32148D0E941
:100710000010491C40F100001E4AC2E900101D49AA
:100720000922D1E90040A21A70F10000D4D30921B6
:100730000020184AC2E9001022E016490878FFF7A5
:100740007BFE0021144A1160516008E01248D0E994
:1007500000305A1C40F100000F49C1E900200E484A
:10076000D0E900200D4BD21A70F10000EED30948F9
:10077000D0E90010491E60F10000064AC2E90010ED
:100780000448D0E900100022514050400143D4D128
:100790009DE700000000002008000020E093040016
:1007A00010B50446192C3ED00CDC062C73D004DCAA
:1007B000002C5CD0022C77D147E0122C3CD0182CB6
:1007C00072D15DE0402C0AD004DC242C19D0302CEE
:1007D0006AD11FE0782C41D0792C65D108E0012145
:1007E0003348FFF71FFE7E213148FFF719FE5CE01A
:1007F0004F212F48FFF716FE30212D48FFF710FE3E
:1008000053E012212A48FFF70DFE6D212848FFF71B
:1008100007FE4AE006212648FFF704FE7921244816
:10082000FFF7FEFD41E04C212148FFF7FBFD33219E
:100830001F48FFF7F5FD38E024211D48FFF7F2FDC2
:100840005B211B48FFF7ECFD2FE020211848FFF744
:10085000E9FD5F211648FFF7E3FD26E00F2114486C
:10086000FFF7E0FD70211248FFF7DAFD1DE00021DF
:100870000F48FFF7D7FD7F210D48FFF7D1FD14E0AA
:100880000C210B48FFF7CEFD73210948FFF7C8FD87
:100890000BE000E008E001210548FFF7C3FD7E21E1
:1008A0000348FFF7BDFD00E000BF00BF10BD000022
:1008B00000040240D4080008000000201C000000D2
:1008C000A0060008F00800081C0000200404000036
:1008D000B00600080000000000000000000000005A
:1008E0000000000040792430191202780018060038
:040000050800018965
:00000001FF
