:020000040800F2
:10000000480400209D010008DB030008D30300081A
:10001000D7030008E50100082906000800000000D9
:10002000000000000000000000000000990400082B
:10003000E90100080000000055040008C905000897
:10004000B7010008B7010008B7010008B7010008B0
:10005000B7010008B7010008ED010008B70100086A
:10006000B7010008B7010008B7010008B701000890
:10007000B7010008B7010008B7010008B701000880
:10008000B7010008B7010008B7010008B701000870
:10009000B7010008B7010008B7010008B701000860
:1000A000B7010008B7010008B7010008B701000850
:1000B000B7010008B7010008B7010008B701000840
:1000C000B7010008B7010008B7010008B701000830
:1000D000B7010008B7010008B7010008B701000820
:1000E000B7010008B7010008B7010008B701000810
:1000F000B7010008B7010008B7010008B701000800
:10010000B7010008B7010008B7010008B7010008EF
:10011000B7010008B7010008B7010008B7010008DF
:10012000B7010008B7010008B7010008B7010008CF
:10013000B7010008B7010008B7010008B7010008BF
:10014000B7010008B7010008B7010008B7010008AF
:10015000B7010008B7010008B7010008B70100089F
:10016000B7010008B7010008B7010008B70100088F
:10017000B7010008B7010008B7010008B70100087F
:10018000B7010008B7010008DFF80CD000F018F83C
:1001900000480047750D00084804002006488047C5
:1001A00006480047FEE7FEE7FEE7FEE7FEE7FEE75C
:1001B000FEE7FEE7FEE7FEE7CD050008890100083F
:1001C000064C074D06E0E06840F0010394E80700A4
:1001D00098471034AC42F6D3FFF7DAFF900D0008D1
:1001E000B00D000800BFFEE77047000010B50C48D6
:1001F00000780A2802DD002009490870012000F07B
:1002000019F860B107490648007800F01EFA044862
:100210000078401C02490870012000F005F810BD6C
:1002200040000020000000200149086070470000E5
:10023000143C0140014600200022074B1B6803EAE2
:100240000102054B14331B680B4013B10AB10120A6
:1002500000E0002070470000003C014000212349DD
:100260008279002A3AD00A46126803689A430B46FC
:100270001A600A1D126803689A430B1D1A600279FE
:1002800011440A6803681A430A60184A083212685F
:1002900003689A43154B08331A601A1D12680368E5
:1002A0009A43124B0C331A604279102A0ED11A1F4E
:1002B000126803681A430D4B08331A601A1D12683E
:1002C00003681A43094B0C331A600DE00749427961
:1002D00011440A6803681A430A6005E00279114470
:1002E0000A6803689A430A6070470000003C0140B6
:1002F0000EB50121880300F0BFF80021084600F088
:10030000CDF80120009000208DF8040008208DF821
:10031000050001208DF806006846FFF79FFF0620C4
:100320008DF8080001208DF809008DF80A008DF87D
:100330000B0002A800F052F80EBDF0B50A460021ED
:100340000023002400BF3DE0012505FA01F31568F4
:1003500005EA03049C4234D105684F000326BE40E1
:10036000B543056015794E00B54006683543056014
:100370001579012D02D01579022D16D185684F000F
:100380000326BE40B543856055794E00B54086686A
:1003900035438560456801268E40B5434560456814
:1003A00096798E40B6B235434560C5684F00032646
:1003B000BE40B543C560D5794E00B540C6683543EB
:1003C000C560491C1029BFD3F0BD4183704701832C
:1003D000704700BFFEE700BFFEE7704770B5002121
:1003E00000230F22C4781CB3174C246804F4E06483
:1003F000C4F5E064C4F30721C1F10404E3B20A4187
:1004000044789C40E1B28478144021430C07210ECB
:100410000E4C05786155047804F01F050124AC40AA
:1004200005786D11AD0005F1E025C5F8004109E042
:10043000047804F01F050124AC40054D06787611C0
:1004400045F8264070BD00000CED00E000E400E03F
:1004500080E100E07047000029B1064A12680243BB
:10046000044B1A6004E0034A12688243014B1A608D
:10047000704700003038024029B1064A1268024332
:10048000044B1A6004E0034A12688243014B1A606D
:1004900070470000443802407047000030B5002229
:1004A0008B071C0F0F2303FA04F20B4B8C1053F82D
:1004B00024309343084C8D1044F8253023468C108B
:1004C00053F824308C07240F00FA04F42343024C21
:1004D0008D1044F8253030BD083801400CB500209F
:1004E000019000903448006840F480303249086040
:1004F00000BF3148006800F4003000900198401CB3
:100500000190009818B90198B0F5A06FF1D12A4870
:10051000006800F4003010B10120009001E00020DC
:1005200000900098012846D123484030006840F0F0
:1005300080502149403108602048006840F48040E4
:100540001E4908601C48083000681B4908310860D3
:100550000846006840F4004008600846006840F41F
:10056000A05008601648091F0860081F006840F086
:100570008070091F086000BF0F48006800F000701D
:100580000028F9D040F205600E4908600A4808309A
:10059000006820F003000849083108600846006838
:1005A00040F00200086000BF03480830006800F017
:1005B0000C000828F8D10CBD003802400070004043
:1005C00008544007003C02407047000010B5124834
:1005D000006840F001001049086000200E49083111
:1005E00008600D4800680D4908400B4908600C4838
:1005F000091D0860081F006820F48020091F08609A
:10060000002005490C310860FFF768FF4FF00060DB
:100610000449086010BD000000380240FFFFF6FEEC
:100620001030002408ED00E000BFFEE702E008C83B
:10063000121F08C1002AFAD170477047002001E05C
:1006400001C1121F002AFBD1704703B583B0039884
:100650000B287ED2DFE800F0064F9AE3FDFCFBFAA0
:10066000F9F8F700049880880290049800680190D7
:100670000299FFF7ACFE0498808902900498806884
:1006800001900299FFF7A3FE0498808A02900498D3
:10069000006901900299FFF79AFE0498808B0290FE
:1006A0000498806901900299FFF791FE0498808C6C
:1006B00002900498006A01900299FFF788FE04985E
:1006C000808D02900498806A01900299FFF77FFE66
:1006D0000498808E02900498006B01900299FFF7B5
:1006E00074FE0498808F02900498806B01900299A8
:1006F000FFF76BFEE4E2049880880290049800689B
:1007000001900299FFF761FE049880890290049895
:10071000806801900299FFF75AFE0498808A02903F
:100720000498006901900299FFF751FE0498808BAC
:1007300002900498806901900299FFF746FE0498A0
:10074000808C02900498006A01900299FFF73DFEA8
:1007500000E0B4E20498808D02900498806A0190D1
:100760000299FFF732FE0498808E02900498006B85
:1007700001900299FFF729FE0498808F0290049857
:10078000806B01900299FFF720FE99E2049880881F
:1007900002900498006801900299FFF718FE0498EF
:1007A000808902900498806801900299FFF70FFEFB
:1007B0000498808A02900498006901900299FFF7DA
:1007C00004FE0498808B029004988069019002993D
:1007D000FFF7FDFD0498808C02900498006A019058
:1007E0000299FFF7F4FD0498808D02900498806AC6
:1007F00001900299FFF7E9FD0498808E0290049819
:10080000006B01900299FFF7E2FD0498808F02903F
:100810000498806B01900299FFF7D7FD50E204988D
:10082000808802900498006801900299FFF7CFFD3C
:100830000498808902900498806801900299FFF7DB
:10084000C6FD049806E0F1E1A7E15DE113E1C9E02E
:100850007FE035E0808A0290049800690190029957
:10086000FFF7B5FD0498808B029004988069019091
:100870000299FFF7ACFD0498808C02900498006AFE
:1008800001900299FFF7A1FD0498808D02900498D1
:10089000806A01900299FFF798FD0498808E02907B
:1008A0000498006B01900299FFF791FD0498808FE6
:1008B00002900498806B01900299FFF786FDFFE19A
:1008C0000498808802900498006801900299FFF7CC
:1008D0007CFD0498808902900498806801900299B8
:1008E000FFF775FD0498808A0290049800690190D2
:1008F0000299FFF76CFD0498808B02900498806940
:1009000001900299FFF761FD0498808C0290049891
:10091000006A01900299FFF758FD0498808D0290BB
:100920000498806A01900299FFF751FD0498808E27
:1009300002900498006B01900299FFF748FD04981B
:10094000808F02900498806B01900299FFF73DFD23
:10095000B6E104988088029004980068019002999A
:10096000FFF735FD04988089029004988068019013
:100970000299FFF72AFD0498808A02900498006982
:1009800001900299FFF723FD0498808B0290049850
:10099000806901900299FFF71AFD0498808C0290FB
:1009A0000498006A01900299FFF70FFD0498808D6A
:1009B00002900498806A01900299FFF708FD04985C
:1009C000808E02900498006B01900299FFF7FFFC63
:1009D0000498808F02900498806B01900299FFF731
:1009E000F4FC6DE1049880880290049800680190FE
:1009F0000299FFF7ECFC04988089029004988068C3
:100A000001900299FFF7E1FC0498808A0290049813
:100A1000006901900299FFF7DAFC0498808B02903C
:100A20000498806901900299FFF7D1FC0498808CAA
:100A300002900498006A01900299FFF7C8FC04989C
:100A4000808D02900498806A01900299FFF7BFFCA4
:100A50000498808E02900498006B01900299FFF731
:100A6000B6FC0498808F02900498806B01900299E4
:100A7000FFF7ABFC24E1049880880290049800689A
:100A800001900299FFF7A3FC0498808902900498D2
:100A9000806801900299FFF79AFC0498808A02907E
:100AA0000498006901900299FFF791FC0498808BEB
:100AB00002900498806901900299FFF786FC0498DF
:100AC000808C02900498006A01900299FFF77DFCE7
:100AD0000498808D02900498806A01900299FFF733
:100AE00074FC0498808E02900498006B0190029927
:100AF000FFF76BFC0498808F02900498806B019044
:100B00000299FFF762FCDBE0049880880290049869
:100B1000006801900299FFF75AFC049880890290BE
:100B20000498806801900299FFF751FC0498808A2C
:100B300002900498006901900299FFF748FC04981C
:100B4000808B02900498806901900299FFF73FFC26
:100B50000498808C02900498006A01900299FFF733
:100B600036FC0498808D02900498806A0190029966
:100B7000FFF72DFC0498808E02900498006B019082
:100B80000299FFF724FC0498808F02900498806BF0
:100B900001900299FFF719FC92E004988088029076
:100BA0000498006801900299FFF711FC049880896D
:100BB00002900498806801900299FFF708FC04985D
:100BC000808A02900498006901900299FFF7FFFB68
:100BD0000498808B02900498806901900299FFF735
:100BE000F6FB0498808C02900498006A01900299A8
:100BF000FFF7EBFB0498808D02900498806A0190C7
:100C00000299FFF7E4FB0498808E02900498006B31
:100C100001900299FFF7DBFB0498808F0290049803
:100C2000806B01900299FFF7D0FB49E0049880881F
:100C300002900498006801900299FFF7C6FB04989F
:100C4000808902900498806801900299FFF7BDFBAB
:100C50000498808A02900498006901900299FFF735
:100C6000B4FB0498808B02900498806901900299EB
:100C7000FFF7ABFB0498808C02900498006A019007
:100C80000299FFF7A2FB0498808D02900498806A75
:100C900001900299FFF799FB0498808E02900498C6
:100CA000006B01900299FFF790FB0498808F0290EF
:100CB0000498806B01900299FFF789FB00E000BF68
:100CC00000BF05B000BD00007CB50546002444E02F
:100CD00055F834002249884204D101210846FFF723
:100CE000BBFB26E055F834001E49884204D101219F
:100CF0000220FFF7B1FB1CE055F834001A49884286
:100D000004D101210420FFF7A7FB12E055F83400BD
:100D10001649884204D101210820FFF79DFB08E015
:100D200055F834001249884203D101211020FFF701
:100D300093FB05EBC4008088009001208DF804002F
:100D40008DF806008DF805008DF8070055F8340081
:100D50006946FFF7F2FA601CC4B2082CB8DB7CBD10
:100D6000000002400004024000080240000C024063
:100D70000010024010B5FFF7BBFA0448FFF7A4FFCC
:100D800002490020FFF761FC002010BD0000002098
:100D9000B00D000800000020440000002C060008F0
:100DA000F40D000844000020040400003C06000884
:100DB000000002401000000000000240001000008F
:100DC0000004024001000000000802400200000090
:100DD0000008024000020000000C02402000000059
:100DE0000010024000080000001002400040000017
:040DF00001000000FE
:040000050800018965
:00000001FF
