:020000040800F2
:10000000C00400209D010008990300089103000826
:100010009503000811020008CD0D00080000000043
:100020000000000000000000000000006105000862
:1000300015020008000000001504000891060008E1
:10004000B7010008B7010008B7010008B7010008B0
:10005000B7010008B701000831020008B701000825
:10006000B7010008B7010008B7010008B701000890
:10007000B7010008B7010008B7010008B701000880
:10008000B7010008B7010008B7010008B701000870
:10009000B7010008B7010008B7010008B701000860
:1000A000B7010008B7010008B7010008B701000850
:1000B000B7010008B7010008B7010008B701000840
:1000C000B7010008B7010008B7010008B701000830
:1000D000B7010008D90B0008FD0B0008B7010008A4
:1000E000B7010008B7010008B7010008B701000810
:1000F000B7010008B7010008B7010008B701000800
:10010000B7010008B7010008B7010008B7010008EF
:10011000B7010008B7010008B7010008B7010008DF
:10012000B7010008B7010008B7010008B7010008CF
:10013000B7010008B7010008B7010008B7010008BF
:10014000B7010008B7010008B7010008B7010008AF
:10015000B7010008B7010008B7010008210C00082A
:10016000B7010008B7010008B7010008B70100088F
:10017000B7010008B7010008B7010008B70100087F
:10018000B7010008B7010008DFF80CD000F02EF826
:1001900000480047790F0008C00400200648804747
:1001A00006480047FEE7FEE7FEE7FEE7FEE7FEE75C
:1001B000FEE7FEE7FEE7FEE7A1060008890100086A
:1001C00030B50B46014600202022012409E021FA27
:1001D00002F59D4205D303FA02F5491B04FA02F524
:1001E0002844151EA2F10102F1DC30BD064C074D7A
:1001F00006E0E06840F0010394E8070098471034F7
:10020000AC42F6D3FFF7C4FF6C1000088C10000856
:1002100000BFFEE7704700000021044A116000BFE4
:10022000024909688142FBD97047000004000020A0
:1002300010B5012000F020F890B10221094800F02B
:100240009EF828B108480068401C0749086004E08F
:1002500005480068401E04490860012000F006F8C7
:1002600010BD0000000002400000002001490860AD
:1002700070470000143C0140014600200022074B5B
:100280001B6803EA0102054B14331B680B4013B1D2
:100290000AB1012000E0002070470000003C01404E
:1002A000002123498279002A3AD00A46126803685D
:1002B0009A430B461A600A1D126803689A430B1D85
:1002C0001A60027911440A6803681A430A60184ADE
:1002D0000832126803689A43154B08331A601A1DD6
:1002E000126803689A43124B0C331A604279102A41
:1002F0000ED11A1F126803681A430D4B08331A6097
:100300001A1D126803681A43094B0C331A600DE07A
:100310000749427911440A6803681A430A6005E0F4
:10032000027911440A6803689A430A607047000022
:10033000003C01400EB50121880300F07DF800214A
:10034000084600F00FF90120009000208DF804000D
:100350000C208DF8050001208DF806006846FFF797
:100360009FFF06208DF8080001208DF809008DF808
:100370000A008DF80B0002A800F010F80EBD02462E
:10038000002013690B400BB1012000E000207047F2
:1003900000BFFEE700BFFEE77047000070B5002118
:1003A00000230F22C4781CB3174C246804F4E064C3
:1003B000C4F5E064C4F30721C1F10404E3B20A41C7
:1003C00044789C40E1B28478144021430C07210E0C
:1003D0000E4C05786155047804F01F050124AC40EB
:1003E00005786D11AD0005F1E025C5F8004109E083
:1003F000047804F01F050124AC40054D0678761101
:1004000045F8264070BD00000CED00E000E400E07F
:1004100080E100E07047000029B1064A12680243FB
:10042000044B1A6004E0034A12688243014B1A60CD
:10043000704700002038024029B1064A1268024382
:10044000044B1A6004E0034A12688243014B1A60AD
:10045000704700004438024029B1064A126802433E
:10046000044B1A6004E0034A12688243014B1A608D
:100470007047000024380240F0B50021002200241B
:10048000022500260223324F3F6807F00C0121B1FC
:10049000042905D0082937D105E02E4F076036E042
:1004A0002D4F076033E02A4F3F1F3F68C7F3805648
:1004B000274F3F1F3F6807F03F036EB1264FB7FB42
:1004C000F3F7DFF88CC0ACF1040CDCF800C0CCF31F
:1004D000881C07FB0CF40CE01E4FB7FBF3F7DFF8AA
:1004E00070C0ACF1040CDCF800C0CCF3881C07FB36
:1004F0000CF4174F3F1F3F68C7F301477F1C7D0077
:10050000B4FBF5F7076002E0124F076000BF00BFC1
:100510000F4F3F6807F0F0010909104F7A5C076838
:10052000D74047600A4F3F6807F4E051890A0B4FF4
:100530007A5C4768D7408760054F3F6807F46041A1
:10054000490B064F7A5C4768D740C760F0BD000092
:10055000083802400024F40000127A00380000201D
:100560007047000030B500228B071C0F0F2303FAE1
:1005700004F20B4B8C1053F824309343084C8D102D
:1005800044F8253023468C1053F824308C07240F70
:1005900000FA04F42343024C8D1044F8253030BD9A
:1005A000083801400CB500200190009034480068E4
:1005B00040F480303249086000BF3148006800F4E0
:1005C000003000900198401C0190009818B90198E3
:1005D000B0F5A06FF1D12A48006800F4003010B1E6
:1005E0000120009001E0002000900098012846D1F1
:1005F00023484030006840F0805021494031086075
:100600002048006840F480401E4908601C480830BB
:1006100000681B49083108600846006840F4004043
:1006200008600846006840F4A05008601648091F9A
:100630000860081F006840F08070091F086000BF54
:100640000F48006800F000700028F9D040F2056003
:100650000E4908600A480830006820F00300084985
:10066000083108600846006840F00200086000BFDA
:1006700003480830006800F00C000828F8D10CBDD1
:10068000003802400070004008544007003C02401F
:1006900002480068401C01490860704704000020BF
:1006A00010B51648006840F00100144908600020A9
:1006B00012490831086011480068114908400F4983
:1006C00008601048091D0860081F006820F4802099
:1006D000091F0860002009490C310860FFF762FF1C
:1006E0004FF000600849086007488030006840F417
:1006F000700005498031086010BD000000380240DC
:10070000FFFFF6FE1030002408ED00E001464FF434
:100710000030081AC0F38F207047000000B5024671
:100720001046FFF7F3FF012101FA00F002490968C2
:1007300008430149086000BD303802402DE9F0430C
:1007400004460E461546DDE907892046FFF7DEFF21
:10075000C7B2002243E001209040304000B93CE0A5
:10076000214830F817000121914008431E4921F823
:100770001700E0684FEA420C032101FA0CF18843AC
:10078000510008FA01F10843E06020684FEA420C8A
:10079000032101FA0CF18843510005FA01F10843E5
:1007A0002060012D01D0022D16D1616801209040FA
:1007B00080B221EA000003FA02F189B208436060C6
:1007C000A0684FEA420C032101FA0CF18843510062
:1007D00009FA01F10843A06000BF501CC2B2102A00
:1007E000B9DBBDE8F0830000480000202DE9FC479C
:1007F00005460E4617469846DDE90A9A0EB9BDE849
:10080000FC872846FFF78AFF00241AE00120A04059
:10081000304000B914E0E10805F1200050F8210053
:100820006107CA0E0F21914088436107C90E0AFA79
:1008300001F10843E20805F1200141F8220000BF60
:10084000641C102CE2D33B46022231462846CDE9F7
:100850000089FFF773FF00BFD1E700001CB5044615
:100860004CB90720032101230022CDE900104902E1
:100870000A48FFF7BBFF012C09D107200321012300
:100880000022CDE90010C0210548FFF7AFFF032C7F
:1008900003D10721034800F07BF91CBD0000024092
:1008A00000040240001001401CB504464CB907206A
:1008B000032101230022CDE900100C210A48FFF793
:1008C00095FF012C09D10720032101230022CDE946
:1008D000001060210548FFF789FF032C03D1072191
:1008E000034800F055F91CBD00000240000C024016
:1008F000004400401CB504464CB9082003210123E4
:100900000022CDE90010C0210B48FFF76FFF012C3A
:100910000AD10820032101230022CDE900104FF461
:1009200084410648FFF762FF032C03D108210448E5
:1009300000F02EF91CBD0000000802400018024023
:100940000014014030B504460025204600F030F880
:100950000346D888002803DC18895989884211D0B9
:1009600058899988884201D100205881598918688E
:10097000405C45B25889401C5881D88810B1D8884D
:10098000401ED880E8B230BD0146064A914200D1EF
:100990000020054A914200D10120044A914200D131
:1009A0000620704700100140004400400014014040
:1009B0000146064A914200D10548064A914200D1BB
:1009C0000548064A914200D1054870470010014091
:1009D00008000020004400401800002000140140DE
:1009E000280000202DE9F04F87B004460D4616463A
:1009F0001F46DDE911ABDDF840902046FFF7D8FF38
:100A000080460396384884420BD13848006840F04D
:100A10001000364908602846FFF720FF25208DF892
:100A20000800334884420DD13048001F006840F46C
:100A300000302E49091F08602846FFF735FF2620A1
:100A40008DF808002B4884420BD12848006840F0FC
:100A50002000264908602846FFF74CFF47208DF804
:100A60000800204600F0EEF801208DF80B0006206B
:100A70008DF809002046FFF787FF8DF80A0002A8CD
:100A8000FFF78CFCADF818701FFA89F0ADF816006E
:100A90001FFA8AF0ADF814001FFA8BF0ADF81200BF
:100AA000139880B2ADF81000002088F80C0000BF49
:100AB00040F6FF70019000BF0198411E019100288F
:100AC000FAD100BF03A9204600F016F9A08940F032
:100AD0002000A081012088F80C00A08940F400507B
:100AE000A08107B0BDE8F08F0010014044380240FB
:100AF0000044004000140140C28883889A420EDA04
:100B0000028983889A4201D1002202810389026806
:100B1000D1540289521C0281C288521CC280704783
:100B20007FB504460D461646164884420BD1002078
:100B30000C23CDE90030029003463246294603904B
:100B40002046FFF74FFF104884420BD100200C23B2
:100B5000CDE90030029003463246294603902046F4
:100B6000FFF740FF094884420BD100200C23CDE958
:100B70000030029003463246294603902046FFF794
:100B800031FF7FBD001001400044004000140140CF
:100B9000704730B503460C461846FFF709FF054677
:100BA000287B00B930BD12E000BF00BF188800F0FC
:100BB00080000028FAD000BF14F8010B988000BF15
:100BC00000BF188800F080000028FAD000BF20780D
:100BD0000028E9D100BFE5E700B50648008800F02D
:100BE000200028B103488088C1B20348FFF784FF82
:100BF00000BD0000001001400800002000B50648BC
:100C0000008800F0200030B10348001D0088C1B208
:100C10000248FFF771FF00BD0044004018000020AB
:100C200000B50648008800F0200030B10348001DE0
:100C30000088C1B20248FFF75FFF00BD0014014009
:100C40002800002010B504462548844208D101211F
:100C50001020FFF701FC00211020FFF7FDFB3EE014
:100C60002048844209D101214804FFF7D5FB002127
:100C70004FF40030FFF7D0FB31E01B48844209D12C
:100C800001218804FFF7C8FB00214FF48020FFF703
:100C9000C3FB24E01548844209D10121C804FFF7B1
:100CA000BBFB00214FF40020FFF7B6FB17E0104814
:100CB000844209D101210805FFF7AEFB00214FF462
:100CC0008010FFF7A9FB0AE00A48844207D10121FE
:100CD0002020FFF7C1FB00212020FFF7BDFB10BD46
:100CE000001001400044004000480040004C00401B
:100CF00000500040001401402DE9FF4705460E4614
:100D00000024A14600BFA046B08900B100BF2C8AD4
:100D100024F44054F08804432C82AC8941F20C60E6
:100D20008443B08831890843718908430443AC8106
:100D3000AC8A24F44074B0890443AC826846FFF75F
:100D40009BFB2048854202D01F48854202D1DDF836
:100D50000C9001E0DDF80890A88900F4004040B153
:100D600009EBC90000EB091031684900B0FBF1F74D
:100D700007E009EBC90000EB091031688900B0FBFE
:100D8000F1F76420B7FBF0F004012009642101FBB6
:100D90001078A88900F4004040B1322000EBC80070
:100DA000B0FBF1F000F00700044308E0322000EB54
:100DB00008106421B0FBF1F000F00F0004432C8117
:100DC000BDE8FF87001001400014014000BFFEE7AE
:100DD0000FB4084B10B504A902AA039800F01CF840
:100DE000044602A9002000F0C1F8204610BC5DF8BE
:100DF00014FB00006D0F000802E008C8121F08C1B4
:100E0000002AFAD170477047002001E001C1121F8B
:100E1000002AFBD1704700002DE9FF4F89B09B46A7
:100E20000446002506E025280BD05A460B9990472A
:100E3000641C6D1C20780028F5D10DB02846BDE853
:100E4000F08F0027B8460122474900E0074314F815
:100E5000013F203B02FA03F00842F7D120782E2808
:100E600019D114F8010F47F004072A280ED06FF0AB
:100E70002F022078A0F1300109290CD808EB880155
:100E800002EB410100EB0108641CF2E70A98641CC4
:100E900050F8048B0A9020780028CED0642808D01F
:100EA000692806D075281ED05A460B9990476D1CAC
:100EB00058E00A994FF00A0901C90A91002802DA9C
:100EC00040422D2102E0390504D52B218DF8201058
:100ED000012103E0F90704D02021F7E78A4608AE94
:100EE0000DE00021FAE70A994FF00A0901C90A91B9
:100EF000F7E74946FFF764F9303106F8011D00288D
:100F0000F7D1ADEB060000F12009780701D44FF0CE
:100F10000108C84502DDA8EB090000E0002080467A
:100F2000002706E008A85A46C05D0B9990476D1C43
:100F30007F1C5745F6DB04E030205A460B9990475A
:100F40006D1CB8F10001A8F10108F5DC05E016F808
:100F5000010B5A460B9990476D1CB9F10001A9F19C
:100F60000109F4DC641C65E7092801000A68531CC8
:100F70000B60107070470000C0B04FF4FA51B1F12F
:100F8000807F00D31DE021F07F40401E4FF0E02223
:100F9000506150170F22002807DA13071E0E254B49
:100FA00000F00F052D1F5E5503E013071D0E224BA9
:100FB0001D5400BF00204FF0E02290610720106117
:100FC00000BFFFF7B7F94FF4165200211B48FFF797
:100FD000A7FD2DE01948FFF7B5FC0446D4B117482A
:100FE0000094818901F4005191B100BF00BF0188D4
:100FF00001F080010029FAD000BF9DF80010818027
:1010000000BF00BF018801F080010029FAD000BFB5
:1010100000BF00BF0A4802680AA101A8FFF7D8FE76
:1010200001A90648FFF7B5FD4FF4FA70FFF7F4F891
:10103000D0E7000018ED00E000E400E000100140FF
:10104000000000204E756D65726F2064652070751C
:101050006C736F732064656C20656E636F6465727A
:101060003A202564200D0A0A000000008C100008B8
:101070000000002048000000F80D0008D41000080F
:101080004800002078040000080E0008000000005E
:10109000000000005E0000202000000000000000B2
:1010A000000A00007E000020200000000000000078
:1010B000000A00009E000020200000000000000048
:1010C000000A000000000000010203040102030402
:0410D00006070809FE
:040000050800018965
:00000001FF
